:0400000007EF00F016
:0A0008004F823FED13F070EF1AF085
:1008000000010000000A00000064000000E803008E
:100810000010270000A086010040420F008096983B
:100820000000E1F50500CA9A3B00803F002041002E
:10083000C842007A44401C4650C347247449971864
:100840004BBCBE4C6B6E4E03155079AD60F34971D5
:1008500000803FCDCC3DD7233C12833AB7D138C678
:100860002737388635C0D633CC2B32708930E7DB5A
:100870002EE53C1E42A20D5554432054696D653A45
:10088000200025643A25643A2564002564256343E5
:100890002020004C6F6E673A20004C61743A2000B3
:1008A000416C743A2000252E30356600252E3266C4
:1008B000002C00006D0E0001806F000E0001816FA2
:1008C00030EF09F0250E00019319D8B40BD069C0A0
:1008D000D9FF6AC0DAFF93C0DFFF0001694B6A2BC2
:1008E00030EF09F0000E0001836F000E826F6BC0C5
:1008F000F6FF6CC0F7FF0800F5502E0AD8A434D0DC
:100900000001838D00016B4B6C2B000E0001926F78
:10091000000E916F1ED091C01EF092C01FF0000E0D
:10092000216E0A0E206EC9EC1AF06BC0F6FF6CC087
:10093000F7FF0800F5501E26000E1F22D00E1E24C1
:100940000001916FFF0E1F200001926F00016B4BA1
:100950006C2B6BC0F6FF6CC0F7FF0800F55011EC74
:100960001BF0D8A056D0D7D7000E0001926F000E12
:10097000916F000183894DD00001838566D000010D
:10098000915100019211D8B41FD000017E51000195
:10099000915D00017F5100019259D8B015D091C0EE
:1009A0007EF092C07FF010D07CC0D9FF7DC0DAFF0E
:1009B00069C0E1FF6AC0E2FFDFCFE7FF00017C4BC7
:1009C0007D2B0001694B6A2B00017E07D8A07F07B1
:1009D00000017E29E9E100017F29D8B430EF09F058
:1009E000E3D780C0D9FF81C0DAFFDF500001936FE9
:1009F000020E00018027000E8123930E00017C6F00
:100A0000000E00017D6F000E00017F6F010E7E6FF2
:100A1000B6D76BC0F6FF6CC0F7FF00016B4B6C2BB9
:100A20000800F5CF93F000019351000AD8B43FEFCE
:100A300009F0630AD8B4D5D7070AD8B406D0020A99
:100A4000D8B49AD70F0AD8A4D8D7070E00018315B7
:100A5000D8B415D3000183A905D0000E0001926F10
:100A6000060E916F80C0D9FF81C0DAFFDECF8EF015
:100A7000DECF8FF0DDCF90F0030E00018027000E57
:100A80008123000190AF11D08EC033F08FC034F0BD
:100A900090C035F0DCEC1AF033C08EF034C08FF02B
:100AA00035C090F0030E00018213000E0001856F27
:100AB000000E846F00018E5100018F110001901112
:100AC000D8B491D0820E0001736FFF0E0001746FD5
:100AD0008EC075F08FC076F090C077F091C078F03E
:100AE000100E06D00001D890783377337633753303
:100AF000E82EF8D700017551000173250001846FBD
:100B0000000E000174210001856F00018407D8A048
:100B1000850784C01EF085C01FF0000E216E030EF5
:100B2000206EC9EC1AF01EC084F01FC085F084C08E
:100B300016F085C017F0000E196E0A0E186E3AEC0A
:100B400017F016C084F017C085F0000185AF04D0FF
:100B500000018407D8A0850700018451000846ECF5
:100B600009F033C086F034C087F035C088F086C005
:100B700024F087C025F088C026F08EC027F08FC0F3
:100B800028F090C029F0CEEC14F024C086F025C0E7
:100B900087F026C088F086C010F087C011F088C0AA
:100BA00012F0000E136E800E146E3F0E156EB0EC38
:100BB00016F0D8B005D000018407D8A0850713D05F
:100BC00086C010F087C011F088C012F0000E136EBE
:100BD000200E146E410E156EB0EC16F0D8A003D0A6
:100BE0000001844B852B000192BF08D00001925177
:100BF0001DE10D0E0001915DD8B018D08EC03DF002
:100C00008FC03EF090C03FF000019151C7EC0EF054
:100C100033C040F034C041F035C042F0EAEC0FF090
:100C20003DC08EF03EC08FF03FC090F0000185BF08
:100C300008D00001855126E10A0E0001845DD8B07C
:100C400021D000018E5100018F1100019011D8B404
:100C50005BD08EC03AF08FC03BF090C03CF0B1EC5E
:100C600012F03A503B103C103D10D8A44DD000017A
:100C700085BF4AD00001855105E1020E0001845D67
:100C8000D8A042D086C010F087C011F088C012F002
:100C9000700E136E890E146E400E156EB0EC16F0C9
:100CA000D8B003D00001F70E02D00001F80E84275F
:100CB000FF0E85230001845146EC09F033C086F015
:100CC00034C087F035C088F08EC010F08FC011F0AE
:100CD00090C012F086C013F087C014F088C015F0E1
:100CE00084EC11F010C08AF011C08BF012C08CF0AF
:100CF00013C08DF0000E00018E6F000E00018F6F8B
:100D0000000E0001906F33D08EC03AF08FC03BF0E0
:100D100090C03CF0B1EC12F03AC08AF03BC08BF0CE
:100D20003CC08CF03DC08DF08EC063F08FC064F08D
:100D300090C065F08AC018F08BC019F08CC01AF012
:100D40008DC01BF017EC19F018C066F019C067F0E1
:100D50001AC068F0F3EC19F063C08EF064C08FF035
:100D600065C090F0000E0001856F000E846F010ECB
:100D70000001936F0A0E00019319D8B41ED0000130
:100D80009351040D010EF324F66E080EF420F76E55
:100D90000900F55000018A5D0900F55000018B59EA
:100DA0000900F55000018C590900F55000018D59DA
:100DB000D8A003D00001932BDDD7030E00018215CC
:100DC0000001736F000E000183150001746F0001B4
:100DD000735100017411D8B454D069C0D9FF6AC0EE
:100DE000DAFF2D0E4CD00001694B6A2B4AD08AC025
:100DF00019F08BC01AF08CC01BF08DC01CF00001E4
:100E00009351040D010EF324F66E080EF420F76ED4
:100E10000900F5CF1DF00900F5CF1EF00900F5CF50
:100E20001FF00A00F5CF20F07CEC17F019C086F017
:100E30001AC087F01BC088F01CC089F086C010F073
:100E400087C011F088C012F089C013F00A0E146E2A
:100E5000000E156E000E166E000E176EE4EC18F004
:100E600010C086F011C087F012C088F013C089F05E
:100E700000018651300F69C0D9FF6AC0DAFFDF6E0A
:100E8000B2D70001930700019329D8B40ED0AFD791
:100E900069C0D9FF6AC0DAFF300EDF6E0001694B0E
:100EA0006A2B00018407D8A08507000185BF07D001
:100EB00000018551EDE100018405D8B0E9D70001BA
:100EC00092BF0CD00001925105E1090E0001915D25
:100ED000D8A004D0080E0001936F02D091C093F007
:100EE000000193510001915F000E000193BFFF0EBE
:100EF0000001925B000193510001D8B409D069C090
:100F0000D9FF6AC0DAFF2E0EDF6E0001694B6A2B33
:100F10000001935146EC09F033C079F034C07AF007
:100F200035C07BF08EC027F08FC028F090C029F02C
:100F300079C024F07AC025F07BC026F0CEEC14F006
:100F400024C03AF025C03BF026C03CF0B1EC12F0D2
:100F50003AC08AF03BC08BF03CC08CF03DC08DF0B5
:100F600073D08AC019F08BC01AF08CC01BF08DC0F2
:100F70001CF000019351040D010EF324F66E080ECF
:100F8000F420F76E0900F5CF1DF00900F5CF1EF033
:100F90000900F5CF1FF00A00F5CF20F07CEC17F028
:100FA00019C086F01AC087F01BC088F01CC089F0F9
:100FB00086C010F087C011F088C012F089C013F00D
:100FC0000A0E146E000E156E000E166E000E176ED1
:100FD000E4EC18F010C086F011C087F012C088F061
:100FE00013C089F000018651300F69C0D9FF6AC073
:100FF000DAFFDF6E0001694B6A2B8AC010F08BC0EC
:1010000011F08CC012F08DC013F000019351040D4B
:10101000010EF324F66E080EF420F76E0900F5CFEA
:1010200014F00900F5CF15F00900F5CF16F00A000D
:10103000F5CF17F0E4EC18F010C08AF011C08BF077
:1010400012C08CF013C08DF00001930700019329AA
:10105000D8B40ED086D769C0D9FF6AC0DAFF300E87
:10106000DF6E0001694B6A2B00019107D8A092073F
:101070000001915100019211D8B4F2D0ECD780C098
:10108000D9FF81C0DAFFDECF8AF0DDCF8BF000011F
:10109000000E8BBFFF0E8C6F8D6F020E000180273C
:1010A000000E812300018DAF0CD0030E00018213CE
:1010B00000018D1F8C1F8B1F8A6D000E8B238C23CC
:1010C0008D230001915100019211D8A40DD000018F
:1010D0008A5100018B1100018C1100018D11D8A4DF
:1010E00003D00001914B922B010E0001936F0A0E69
:1010F00000019319D8B41ED000019351040D010EC4
:10110000F324F66E080EF420F76E0900F550000186
:101110008A5D0900F55000018B590900F550000166
:101120008C590900F55000018D59D8A003D0000159
:10113000932BDDD7800E000193BF7F0E0001736FEC
:10114000000191510001935D00019251800A00015C
:101150007359D8B003D091C093F018D000019251C8
:10116000800A0001736F000193510001915D800EB0
:10117000000193BF7F0E00017359D8B007D0000162
:1011800093510001916F926B91BF9207030E000182
:1011900082150001736F000E000183150001746F4A
:1011A0000001735100017411D8B44FD069C0D9FF48
:1011B0006AC0DAFF2D0EDF6E45D091C073F092C089
:1011C00074F00001D890733774370001D8907337EA
:1011D0007437010E00017325F66E080E7421F76E48
:1011E0000900F5CF1DF00900F5CF1EF00900F5CF7D
:1011F0001FF00A00F5CF20F08AC019F08BC01AF05A
:101200008CC01BF08DC01CF07CEC17F019C010F0E6
:101210001AC011F01BC012F01CC013F00A0E146E9D
:10122000000E156E000E166E000E176EE4EC18F030
:101230001050300F0001936F69C0D9FF6AC0DAFF08
:1012400093C0DFFF0001694B6A2B00019107D8A012
:10125000920700019129B1E100019229D8A4ADD7EC
:101260006BC0F6FF6CC0F7FF00016B4B6C2B0800E6
:10127000F5CF93F000019351D8A462EF04F069C058
:10128000D9FF6AC0DAFF000EDF6E1200396E39AE88
:10129000FBD0396C3950800A120FD8A091D0000EC3
:1012A000216E030E206E000E196E0A0E186E000ECF
:1012B000136E640E126E3950106E116A10BE110654
:1012C000ACEC18F010C016F011C017F03AEC17F0A3
:1012D000090E16241E6E000E17201F6EC9EC1AF0A0
:1012E000500E1E24F66E080E1F20F76E0900F5CF73
:1012F00027F00900F5CF28F00A00F5CF29F0000EFD
:10130000196E640E186E3950166E176A16BE1706DF
:101310003AEC17F0120E16241E6E000E17201F6EE8
:10132000000E216E030E206EC9EC1AF0500E1E2422
:10133000F66E080E1F20F76E0900F5CF24F00900A5
:10134000F5CF25F00A00F5CF26F0CEEC14F024C03E
:1013500036F025C037F026C038F036C024F037C04C
:1013600025F038C026F0000E216E030E206E000E10
:10137000136E0A0E126E3950106E116A10BE1106ED
:10138000ACEC18F010C01EF011C01FF0C9EC1AF040
:10139000500E1E24F66E080E1F20F76E0900F5CFC2
:1013A00027F00900F5CF28F00A00F5CF29F0CEECA0
:1013B00014F024C033F025C034F026C035F01200FC
:1013C0003950800A750FD8A04DD0000E196E0A0E44
:1013D000186E3950166E176A16BE17063AEC17F0DB
:1013E000090E16241E6E000E17201F6E000E216EB1
:1013F000030E206EC9EC1AF0500E1E24F66E080E75
:101400001F20F76E0900F5CF24F00900F5CF25F075
:101410000A00F5CF26F0000E216E030E206E000E9E
:10142000136E0A0E126E3950106E116A10BE11063C
:10143000ACEC18F010C01EF011C01FF0C9EC1AF08F
:10144000500E1E24F66E080E1F20F76E0900F5CF11
:1014500027F00900F5CF28F00A00F5CF29F0CEECEF
:1014600014F0A7D73950030D500EF324F66E080E72
:10147000F420F76E0900F5CF33F00900F5CF34F012
:101480000A00F5CF35F012003950800A120FD8A0AB
:1014900091D0000E216E030E206E000E196E0A0E02
:1014A000186E000E136E640E126E3950106E116AB3
:1014B00010BE1106ACEC18F010C016F011C017F0F9
:1014C0003AEC17F0090E16241E6E000E17201F6E40
:1014D000C9EC1AF0290E1E24F66E080E1F20F76EB6
:1014E0000900F5CF27F00900F5CF28F00A00F5CF65
:1014F00029F0000E196E640E186E3950166E176AB8
:1015000016BE17063AEC17F0120E16241E6E000EC9
:1015100017201F6E000E216E030E206EC9EC1AF00C
:10152000290E1E24F66E080E1F20F76E0900F5CF57
:1015300024F00900F5CF25F00A00F5CF26F0CEEC17
:1015400014F024C036F025C037F026C038F036C07D
:1015500024F037C025F038C026F0000E216E030EAF
:10156000206E000E136E0A0E126E3950106E116A44
:1015700010BE1106ACEC18F010C01EF011C01FF028
:10158000C9EC1AF0290E1E24F66E080E1F20F76E05
:101590000900F5CF27F00900F5CF28F00A00F5CFB4
:1015A00029F0CEEC14F024C033F025C034F026C06E
:1015B00035F012003950800A750FD8A04DD0000EBA
:1015C000196E0A0E186E3950166E176A16BE170677
:1015D0003AEC17F0090E16241E6E000E17201F6E2F
:1015E000000E216E030E206EC9EC1AF0290E1E2487
:1015F000F66E080E1F20F76E0900F5CF24F00900E3
:10160000F5CF25F00A00F5CF26F0000E216E030E6F
:10161000206E000E136E0A0E126E3950106E116A93
:1016200010BE1106ACEC18F010C01EF011C01FF077
:10163000C9EC1AF0290E1E24F66E080E1F20F76E54
:101640000900F5CF27F00900F5CF28F00A00F5CF03
:1016500029F0CEEC14F0A7D73950030D290EF3244E
:10166000F66E080EF420F76E0900F5CF33F009008E
:10167000F5CF34F00A00F5CF35F0120038503910AC
:10168000D8B40BD038C0D9FF39C0DAFF36C0DEFF7E
:1016900037C0DDFF02D0364A372A36C0D9FF37C0FF
:1016A000DAFFDF503B6E3B50B6EC1AF0D8B0F3D700
:1016B000000E3C6E2D0E3B18D8A403D0010E3C6EDC
:1016C00004D02B0E3B18D8A402D0364A372A000E7D
:1016D0003B6E000E3E6E000E3F6E000E406E000E22
:1016E000416E000E3D6E3CB80AD036C0D9FF37C0FF
:1016F000DAFF2E0EDE18D8A402D03C883CD036C0CB
:10170000D9FF37C0DAFFDF5011EC1BF0D8A036D07C
:101710003C82080E3B18D8B42CD03CB83D063B2A7E
:101720003EC010F03FC011F040C012F041C013F0B5
:101730000A0E146E000E156E000E166E000E176E59
:101740009FEC19F010C03EF011C03FF012C040F005
:1017500013C041F036C0D9FF37C0DAFFDF503A6E10
:10176000D00E3A263A503E26000E3F224022412219
:1017700002D03CA83D2A364A372AB5D7000E3B6E28
:1017800036C0D9FF37C0DAFF650EDE18D8B408D0EE
:1017900036C0D9FF37C0DAFF450EDE18D8A45ED0B8
:1017A000364A372A36C0D9FF37C0DAFF2D0EDE1889
:1017B000D8A402D03C8608D036C0D9FF37C0DAFFA3
:1017C0002B0EDE18D8A402D0364A372A36C0D9FFED
:1017D00037C0DAFF300EDE18D8B4F6D736C0D9FFDE
:1017E00037C0DAFFDF5011EC1BF0D8A035D036C07F
:1017F000D9FF37C0DAFFDF50D00F3B6E364A372AA9
:1018000036C0D9FF37C0DAFFDF5011EC1BF0D8A08B
:1018100023D036C0D9FF37C0DAFFDF503A6E3B50D5
:101820000A0DF3503A24D00F3B6E364A372A36C0A1
:10183000D9FF37C0DAFFDF5011EC1BF0D8A00CD075
:1018400036C0D9FF37C0DAFFDF503A6E3B500A0D81
:10185000F3503A24D00F3B6E3CB63B6C3B503D26D8
:1018600038503910D8A43CA208D038C0D9FF39C0AC
:10187000DAFF36C0DEFF37C0DDFF3EC018F03FC0E4
:1018800019F040C01AF041C01BF037EC18F018C036
:101890003EF019C03FF01AC040F03E503F104010DB
:1018A000D8A407D0000E366E000E376E000E386ECC
:1018B00012003DAE56D03D6C16D03EC022F03FC067
:1018C00023F040C024F0030E256E150E266E500E38
:1018D000276E48EC15F022C03EF023C03FF024C034
:1018E00040F0F60E3D263D50800A760FD8A016D067
:1018F000E4D73EC022F03FC023F040C024F0000EE9
:10190000256E200E266E410E276E48EC15F022C083
:101910003EF023C03FF024C040F03D063D50D8A427
:10192000E8D73EC010F03FC011F040C012F0000EEA
:10193000136E800E146E000E156EB0EC16F0D8B05B
:1019400061D03CA007D0000E366E800E376E800E40
:10195000386E1200000E366E800E376E000E386E36
:1019600012003D50800A7F0FD8B017D04BD03EC038
:1019700024F03FC025F040C026F0030E276E150E60
:10198000286E500E296ECEEC14F024C03EF025C017
:101990003FF026C040F0F60E3D260A0E3D60E7D728
:1019A00015D03EC024F03FC025F040C026F0000E08
:1019B000276E200E286E410E296ECEEC14F024C046
:1019C0003EF025C03FF026C040F03D063D50D8A473
:1019D000E8D7FF0E106E7F0E116E7F0E126E3EC0A6
:1019E00013F03FC014F040C015F0B0EC16F0D8B0C2
:1019F00009D03CB0A8D7000E366E800E376E000EB0
:101A0000386E12003CA00ED03EC033F03FC034F020
:101A100040C035F0DCEC1AF033C03EF034C03FF08B
:101A200035C040F03EC036F03FC037F040C038F01F
:101A30001200720ED36E19EC1AF0F28EF28C9D8A9F
:101A4000800E0001666F250E676F000E686F000E36
:101A5000696FBDEC17F03EEC1BF0000E116E000E2E
:101A6000106EFAEC17F010C018F011C019F039EC34
:101A70001AF018C024F019C025F01AC026F0290E5B
:101A8000276E9C0E286E400E296ECEEC14F024C0FA
:101A9000D4F025C0D5F026C0D6F0D4C022F0D5C0F1
:101AA00023F0D6C024F0000E256E200E266E410EC7
:101AB000276E48EC15F022C0D4F023C0D5F024C026
:101AC000D6F0D4C03AF0D5C03BF0D6C03CF0B1EC73
:101AD00012F03AC0B8F03BC0B9F0E60E0001696FF1
:101AE000000E00016A6F8B0E00016B6F080E000183
:101AF0006C6FB8C06DF0B9C06EF0000E0001706F71
:101B0000DF0E6F6F5AEC04F0A20E106E000E116E15
:101B1000000E136E000E126E000E156E0F0E146E78
:101B2000A0EC1AF0000E196E770E1A6E080E1B6EDE
:101B3000010E45EC19F073EC18F02AC0B1F02BC07F
:101B4000B2F02CC0B3F02DC0B4F0B1C094F0B2C06C
:101B500095F0B3C096F0B4C097F0C9EC13F0D70E6F
:101B6000176E000E186ECAEC19F0900E176E080E64
:101B7000186ECAEC19F0500E106E010E116ED70ED1
:101B8000126E000E136E89EC1AF0500E106E010EDC
:101B9000116EB10E126E080E136E73EC19F0000E7A
:101BA000196E9A0E1A6E080E1B6E020E45EC19F095
:101BB0000001C05161EC16F060C0BAF061C0BBF02A
:101BC00062C0BCF0BAC066F0BBC067F0BCC068F0D1
:101BD000E9EC10F066C0BAF067C0BBF068C0BCF0BA
:101BE000A20E0001696F000E00016A6FA60E0001CF
:101BF0006B6F080E00016C6FBAC06DF0BBC06EF069
:101C0000BCC06FF05AEC04F0A20E176E000E186EF6
:101C1000CAEC19F0A20E106E000E116E000E136EBB
:101C2000000E126E000E156E0F0E146EA0EC1AF060
:101C3000500E106E010E116EA20E126E000E136E7B
:101C400073EC19F0500E106E010E116EB10E126E83
:101C5000080E136E73EC19F0000E196E930E1A6EC7
:101C6000080E1B6E030E45EC19F00001C25112EC78
:101C700016F060C0BDF061C0BEF062C0BFF0BDC074
:101C800066F0BEC067F0BFC068F0E9EC10F066C057
:101C9000BDF067C0BEF068C0BFF0A20E0001696F62
:101CA000000E00016A6FA60E00016B6F080E0001A6
:101CB0006C6FBDC06DF0BEC06EF0BFC06FF05AEC6F
:101CC00004F0A20E176E000E186ECAEC19F0A20EE8
:101CD000106E000E116E000E136E000E126E000ECE
:101CE000156E0F0E146EA0EC1AF0500E106E010E51
:101CF000116EA20E126E000E136E73EC19F0500EE0
:101D0000106E010E116EB10E126E080E136E73EC92
:101D100019F0000E196EA00E1A6E080E1B6E040E3E
:101D200045EC19F00001C751F8EC16F060C0B5F0B1
:101D300061C0B6F062C0B7F0A20E0001696F000E7C
:101D400000016A6FAC0E00016B6F080E00016C6F32
:101D5000B5C06DF0B6C06EF0B7C06FF05AEC04F0CD
:101D6000A20E176E000E186ECAEC19F0500E106E0F
:101D7000010E116EE60E126E000E136E73EC19F06A
:101D8000500E116E010E126EEEEC1AF066D63C6E1D
:101D90006D0E3C649FD0000E216E030E206E000E6F
:101DA000196E0A0E186E000E136E640E126E3CC091
:101DB00010F0116AACEC18F010C016F011C017F05A
:101DC0003AEC17F0090E16241E6E000E17201F6E37
:101DD000C9EC1AF0500E1E24F66E080E1F20F76E86
:101DE0000900F5CF27F00900F5CF28F00A00F5CF5C
:101DF00029F0000E196E640E186E3CC016F0176ABA
:101E00003AEC17F0120E16241E6E000E17201F6EED
:101E1000000E216E030E206EC9EC1AF0500E1E2427
:101E2000F66E080E1F20F76E0900F5CF24F00900AA
:101E3000F5CF25F00A00F5CF26F0CEEC14F024C043
:101E400039F025C03AF026C03BF0000E216E030E9B
:101E5000206E000E136E0A0E126E3CC010F0116A56
:101E6000ACEC18F010C01EF011C01FF0C9EC1AF055
:101E7000500E1E24F66E080E1F20F76E0900F5CFD7
:101E800027F00900F5CF28F00A00F5CF29F039C076
:101E900024F03AC025F03BC026F0CEEC14F024C06C
:101EA00036F025C037F026C038F036C024F037C0F1
:101EB00025F038C026F0000E276E000E286E3F0E6B
:101EC000296ECEEC14F024C033F025C034F026C0C7
:101ED00035F012000A0E3C645DD0000E216E030E38
:101EE000206E000E136E0A0E126E3CC010F0116AC6
:101EF000ACEC18F010C01EF011C01FF0C9EC1AF0C5
:101F0000500E1E24F66E080E1F20F76E0900F5CF46
:101F100027F00900F5CF28F00A00F5CF29F0000ED0
:101F2000196E0A0E186E3CC016F0176A3AEC17F0DC
:101F3000090E16241E6E000E17201F6E000E216E55
:101F4000030E206EC9EC1AF0500E1E24F66E080E19
:101F50001F20F76E0900F5CF24F00900F5CF25F01A
:101F60000A00F5CF26F0CEEC14F024C039F025C0DD
:101F70003AF026C03BF039C024F03AC025F03BC00F
:101F800026F0000E276E000E286E3F0E296ECEEC56
:101F900014F099D73C50030D500EF324F66E080E42
:101FA000F420F76E0900F5CF24F00900F5CF25F0F5
:101FB0000A00F5CF26F0000E276E000E286E3F0EA9
:101FC000296ECEEC14F024C033F025C034F026C0C6
:101FD00035F012003FC043F0446A456A3E34433650
:101FE00001E3448043500001626F42C043F0446A01
:101FF000456A4134433601E3448043500001616F38
:10200000000162510001D8B40FD0000161510001FC
:10201000625DD8B010D00001625100080001612556
:10202000436E180E436407D040C03DF041C03EF0FF
:1020300042C03FF01200000161510001D8B40FD03E
:10204000000162510001615DD8B010D00001615102
:10205000000800016225436E180E436407D03DC09E
:102060003DF03EC03EF03FC03FF01200060E0001C2
:10207000606F3FAE02D00001608F42AE02D000011F
:10208000608D3E8EFF0E3D16FF0E3E16000E3F1673
:10209000418EFF0E4016FF0E4116000E4216000143
:1020A00061510001625DD8B022D0D89040364136EF
:1020B0004236000161070001625100016119D8B484
:1020C0000FD00001600760C043F0070E4316D8B47C
:1020D00007D0EBD7D8903F323E323D320001622B21
:1020E0000001615100016219D8B428D0F3D7000172
:1020F00062510001615DD8B021D0D8903D363E36A6
:102100003F36000162070001625100016119D8B435
:102110000FD00001600760C043F0070E4316D8B42B
:1021200007D0EBD7D8904232413240320001612BC8
:102130000001615100016219D8A4F4D7000160AF19
:102140000CD0FF0E3D1AFF0E3E1AFF0E3F1A010E75
:102150003D26000E3E22000E3F22000160AD0CD055
:10216000FF0E401AFF0E411AFF0E421A010E4026C2
:10217000000E4122000E4222000E0001606F3D5011
:1021800040263E5041223F50422242AE0FD0FF0E29
:10219000401AFF0E411AFF0E421A010E4026000E91
:1021A0004122000E4222010E0001606F40C010F07B
:1021B00041C011F042C012F062C013F060C014F0D0
:1021C000BBEC15F010C03DF011C03EF012C03FF066
:1021D0001200000E256EC80E266E420E276E66C0D7
:1021E00022F067C023F068C024F048EC15F022C04C
:1021F0003AF023C03BF024C03CF0B1EC12F03AC0FE
:102200006FF03BC070F0000E276EC80E286E420EB5
:10221000296E6FC018F070C019F039EC1AF018C0B0
:1022200024F019C025F01AC026F0CEEC14F024C01A
:1022300033F025C034F026C035F0DCEC1AF033C0A2
:102240003DF034C03EF035C03FF066C040F067C09E
:1022500041F068C042F0EAEC0FF03DC069F03EC0CA
:102260006AF03FC06BF069C022F06AC023F06BC017
:1022700024F0000E256E700E266E420E276E48EC7E
:1022800015F022C06CF023C06DF024C06EF06FC05A
:1022900018F070C019F039EC1AF018C03DF019C0F0
:1022A0003EF01AC03FF06CC040F06DC041F06EC00F
:1022B00042F0EAEC0FF03DC071F03EC072F03FC05A
:1022C00073F0530E4E18D8B404D0570E4D18D8A43E
:1022D00014D071C024F072C025F073C026F0000E37
:1022E000276E800E286EBF0E296ECEEC14F024C02F
:1022F00071F025C072F026C073F071C066F072C034
:1023000067F073C068F0120012C016F0176A186AFE
:102310001134163601E3178016501E6E1E50D8A4D5
:1023200009D0000E106E000E116E000E126E000E1F
:10233000136E120015C016F0176A186A1434163698
:1023400001E3178016501D6E1D50D8A409D0000E51
:10235000106E000E116E000E126E000E136E120043
:10236000118EFF0E1016FF0E1116000E1216148E8F
:10237000FF0E1316FF0E1416000E1516000E196E22
:10238000000E1A6E000E1B6E000E1C6E7F0E1E5E7F
:102390001D50980F1E5E180E1D6ED89019361A36F5
:1023A0001B361C361350105C14501158155012581F
:1023B000D8A007D01350105E1450115A1550125A5D
:1023C0001980D8901036113612361D2EE6D71EAE63
:1023D00016D01E50800A970FD8B009D0000E106E8C
:1023E000000E116E000E126E000E136E1200D890C9
:1023F0001C321B321A3219321E3EF9D715D0170E75
:102400001E640FD0000E106E000E116E000E126EC4
:10241000000E136E1200D89019361A361B361C3671
:102420001E061E50D8A4F7D719C010F01AC011F01C
:102430001BC012F01CC013F01200123413341B6EB8
:102440001B50D8A409D0000E106E000E116E000EA5
:10245000126E000E136E1200153416341A6E1A50D6
:10246000D8A409D0000E106E000E116E000E126E70
:10247000000E136E1200128EFF0E1016FF0E1116B4
:10248000FF0E1216000E1316158EFF0E1316FF0EFA
:102490001416FF0E1516000E1616000E166E000E00
:1024A000176E000E186E000E196E7F0E1B5E1A500E
:1024B000A00F1B5E200E1A6ED890163617361836EF
:1024C00019361350105C14501158155012581650EC
:1024D0001358D8A009D01350105E1450115A15503B
:1024E000125A1650135A1680D890103611361236DA
:1024F00013361A2EE1D71BAE16D01B50800A9F0F41
:10250000D8B009D0000E106E000E116E000E126EC3
:10251000000E136E1200D89019321832173216328C
:102520001B3EF9D715D01F0E1B640FD0000E106E86
:10253000000E116E000E126E000E136E1200D89077
:1025400016361736183619361B061B50D8A4F7D77F
:1025500016C010F017C011F018C012F019C013F017
:1025600012003CC03EF03F6A406A3B343E3601E315
:102570003F803E500001656F00016551D8A409D02D
:10258000000E3A6E000E3B6E000E3C6E000E3D6E6D
:102590001200170E3E6E3AC03FF03BC040F03CC008
:1025A00041F03E28426E04D0D890413240323F3252
:1025B000422EFAD73F500001606F3B8EFF0E3A1655
:1025C000FF0E3B16000E3C163A500001616F3B5067
:1025D0000001626F3C500001636F0001646B8E0E5E
:1025E0000001655F000165AF19D000016551800AE7
:1025F0008F0FD8B009D0000E3A6E000E3B6E000E61
:102600003C6E000E3D6E12000001D89064336333BF
:10261000623361330001653FF7D71AD0170E00010E
:10262000656511D0000E3A6E000E3B6E000E3C6EDA
:10263000000E3D6E12000001D8906137623763379B
:10264000643700016507000165510001D8A4F3D784
:10265000000160510001D8B409D00001641F631F5C
:10266000621F616D000E62236323642361C03AF030
:1026700062C03BF063C03CF064C03DF01200060055
:10268000FACF01F0FBCF02F0E9CF03F0EACF04F07C
:10269000E1CF05F0E2CF06F0D9CF07F0DACF08F0AE
:1026A000F3CF09F0F4CF0AF0F6CF0BF0F7CF0CF030
:1026B000F8CF0DF0F5CF0EF09EAA4DD0F29EAECF22
:1026C0000FF0ABA203D0AB9800F0AB88240E0F182C
:1026D000D8A409D0000E4A6E000E496E000E4B6E53
:1026E000000E4C6E38D04B04D8A41AD02C0E0F1804
:1026F000D8A40BD04C50010DC00EF324D96E000E9F
:10270000F420DA6E49C0DFFF4C2A000E4924D96E4E
:10271000010E4A20DA6E0FC0DFFF494A4A2A1BD059
:10272000470E4618D8A411D0470E4718D8A40DD08C
:10273000410E4818D8A409D0010E4B6E000E466E0B
:10274000000E476E000E486E06D047C046F048C0E7
:1027500047F00FC048F00EC0F5FF0DC0F8FF0CC0E9
:10276000F7FF0BC0F6FF0AC0F4FF09C0F3FF08C073
:10277000DAFF07C0D9FF06C0E2FF05C0E1FF04C0D1
:10278000EAFF03C0E9FF02C0FBFF01C0FAFF4F925E
:10279000110094C019F095C01AF096C01BF097C0B4
:1027A0001CF0100E1D6E270E1E6E000E1F6E000E0A
:1027B000206E7CEC17F019C09CF01AC09DF0100E32
:1027C000146E270E156E000E166E000E176E94C056
:1027D00010F095C011F096C012F097C013F0E4EC21
:1027E00018F010C019F011C01AF012C01BF013C07D
:1027F0001CF0640E1D6E000E1E6E000E1F6E000E8D
:10280000206E7CEC17F019C09EF01AC09FF0100EDD
:10281000146E270E156E000E166E000E176E94C005
:1028200010F095C011F096C012F097C013F0E4ECD0
:1028300018F010C098F011C099F012C09AF013C0AF
:102840009BF098C010F099C011F09AC012F09BC094
:1028500013F0640E146E000E156E000E166E000E50
:10286000176EE4EC18F010C0A0F011C0A1F0D70E64
:102870000001696F000E00016A6F820E00016B6F2C
:10288000080E00016C6F9CC06DF09DC06EF09EC084
:102890006FF09FC070F0A0C071F0A1C072F05AEC50
:1028A00004F012001CC0D9FF1DC0DAFFDF50296EF2
:1028B0001C4A1D2A200E2918D8B4F4D7090E29184D
:1028C000D8B4F0D7000E256E000E266E000E276ECF
:1028D000000E286E000E246E2D0E2918D8A405D0E7
:1028E000242A2AD01C4A1D2A2ED02B0E2918D8A4FF
:1028F0002AD022D025C010F026C011F027C012F037
:1029000028C013F00A0E146E000E156E000E166E1F
:10291000000E176E9FEC19F029C020F0D00E202673
:1029200020501024256E000E1120266E000E12205D
:10293000276E000E1320286E1CC0D9FF1DC0DAFFC1
:10294000DF50296ECFD7295011EC1BF0D8B0D2D769
:102950002450D8B41AD025C020F026C021F027C0BA
:1029600022F028C023F0201E211E221E231E202A12
:10297000000E21222222232220C01CF021C01DF0A3
:1029800022C01EF023C01FF0120025C01CF026C07C
:102990001DF027C01EF028C01FF0120026C02AF02C
:1029A0002B6A2C6A25342A3601E32B802A502D6E9F
:1029B0002D50D8A407D0000E246E000E256E000EF8
:1029C000266E120029C02AF02B6A2C6A28342A3677
:1029D00001E32B802A50326E3250D8A407D0000E6B
:1029E000246E000E256E000E266E120032507B0FF4
:1029F0002D2626C032F02950321A800E3216258E2E
:102A0000288EFF0E2716FF0E2816000E2916000E20
:102A10002E6E000E2F6E000E306E070E316E24A04B
:102A200006D027502E2628502F2229503022D89009
:102A3000263225322432D890273628362936312EB0
:102A4000EED7090E316E24A006D027502E2628502E
:102A50002F2229503022D890263225322432D89085
:102A600030322F322E32312EEED72EC010F02FC042
:102A700011F030C012F02DC013F032C014F0BBECD6
:102A800015F010C024F011C025F012C026F012007D
:102A900024C028F0296A2A6A2334283601E32980D1
:102AA00028502F6E2F50D8A407D0000E226E000E93
:102AB000236E000E246E120027C028F0296A2A6AAD
:102AC0002634283601E329802850306E3050D8A4AF
:102AD00007D0000E226E000E236E000E246E120030
:102AE000000E2C6E000E2D6E000E2E6E3050890FD3
:102AF0002F5E24C030F02750301A800E3016238EFF
:102B0000FF0E2216FF0E2316000E2416268EFF0E31
:102B10002516FF0E2616000E2716180E2B6ED890BF
:102B20002C362D362E362550225C26502358275021
:102B30002458D8A007D02550225E2650235A27506B
:102B4000245A2C80D8902236233624362B2EE7D7D1
:102B50002CC010F02DC011F02EC012F02FC013F0B9
:102B600030C014F0BBEC15F010C022F011C023F0FF
:102B700012C024F012001350D8B405D01050111018
:102B80001210D8A40CD0000E106E000E116E000EA4
:102B9000126E1200132AD890123211321032000E27
:102BA0001014156E000E1114166EFE0E1214176E10
:102BB000155016101710D8B40CD0ECD7132A010EEC
:102BC0001026000E1122000E1222D890123211325D
:102BD0001032000E1014156E000E1114166EFF0E3A
:102BE0001214176E155016101710D8B406D0E6D769
:102BF0001306D89010361136123611BE03D0020ECD
:102C00001360F6D713A0119ED890133213501212EE
:102C10001450D8A4128E10C010F011C011F012C0C0
:102C200012F012000001756F000175290001766F26
:102C3000000E0001776F18D000017651010D000ED3
:102C4000F324D96E010EF420DA6E00017751010DE4
:102C5000630EF324E16E000EF420E26EDFCFE7FF97
:102C60000001772B0001762B00017651010D000E3B
:102C7000F324D96E010EF420DA6E2C0EDE18D8A4DF
:102C8000DBD70001772B00017751010D000EF324F3
:102C9000D96E010EF420DA6EDF504D6E630E426E77
:102CA000000E436E00EC1BF042C072F043C073F0A4
:102CB00044C074F072C060F073C061F074C062F020
:102CC00012000001756F000175290001776F000E79
:102CD0000001766F18D000017751010D000EF3242A
:102CE000D96E010EF420DA6E00017651010D630EEB
:102CF000F324E16E000EF420E26EDFCFE7FF000167
:102D0000762B0001772B00017751010D000EF32483
:102D1000D96E010EF420DA6E2C0EDE18D8A4DBD7A3
:102D20000001772B00017751010D000EF324D96EBD
:102D3000010EF420DA6EDF504E6E630E426E000E0E
:102D4000436E00EC1BF042C072F043C073F044C00D
:102D500074F072C060F073C061F074C062F0120071
:102D600012AE16D010C016F011C017F012C018F035
:102D7000161E171E181E162A000E17221822000EE5
:102D80001624106E000E1720116E800E1820126E81
:102D900015AE16D013C016F014C017F015C018F0F9
:102DA000161E171E181E162A000E17221822000EB5
:102DB0001624136E000E1720146E800E1820156E48
:102DC000000E101A000E111A800E121A000E131A9D
:102DD000000E141A800E151A1350105C145011585E
:102DE00015501258D8B002D0D8901200D8801200D6
:102DF0000001726F000172290001746F000E000162
:102E0000736F18D000017451010D000EF324D96EB8
:102E1000010EF420DA6E00017351010D630EF324EC
:102E2000E16E000EF420E26EDFCFE7FF0001732BAE
:102E30000001742B00017451010D000EF324D96EB2
:102E4000010EF420DA6E2C0EDE18D8A4DBD7630E48
:102E5000426E000E436E00EC1BF042C06FF043C0A8
:102E600070F044C071F06FC060F070C061F071C06C
:102E700062F01200000E1B6E19AE06D0186C191EFF
:102E8000D8B0192A010E1B6E17AE06D0166C171E8D
:102E9000D8B0172A010E1B1A000E1D6E000E1C6EF4
:102EA00018501910D8B41CD0010E1A6E04D0D89046
:102EB000183619361A2A19AEFAD7D8901C361D368C
:102EC0001850165C19501758D8A005D01850165E27
:102ED0001950175A1C80D890193218321A2EEDD773
:102EE0001B50D8B404D01C6C1D1ED8B01D2A1CC0A9
:102EF00016F01DC017F01200000E216E000E226E9B
:102F0000000E236E000E246E1D501E101F10201088
:102F1000D8B42AD0010E256E06D0D8901D361E36A4
:102F20001F362036252A20AEF8D7D89021362236F3
:102F3000233624361D50195C1E501A581F501B583A
:102F400020501C58D8A009D01D50195E1E501A5A86
:102F50001F501B5A20501C5A2180D89020321F32FB
:102F60001E321D32252EE1D721C019F022C01AF0E1
:102F700023C01BF024C01CF01200949C948E66C0E9
:102F800018F067C019F068C01AF069C01BF037EC80
:102F900018F018C025F019C026F01AC027F0240E2A
:102FA000226EF40E236E470E246E48EC15F022C0FC
:102FB0003DF023C03EF024C03FF0000E406E800E76
:102FC000416EBF0E426EEAEC0FF03DC06AF03EC0AB
:102FD0006BF03FC06CF06AC03AF06BC03BF06CC065
:102FE0003CF0B1EC12F03A50AF6E200EAC6E900E89
:102FF000AB6E120010C012F0D8901236D890123674
:103000003C0E1216C250C30B1210C26EC2A203D0E5
:10301000126A122A01D0126A010E136E122A02D00D
:10302000D8901336122EFCD7C2A003D0146A142AEB
:1030300001D0146A010E156E142A02D0D8901536EC
:10304000142EFCD715501310C212C2B2FED7C350B3
:10305000C4CF12F0136A12C013F0126A1210166E67
:103060001350176E16C010F017C011F01200000EAA
:10307000216E8E0E206E1BAE11D01B1E1A1E191E45
:10308000186C000E19221A221B22010E216E06D086
:10309000D8901B321A3219321832202A000E181416
:1030A0001C6E000E19141D6E000E1A141E6EFF0EFB
:1030B0001B141F6E1C501D101E101F10D8A4E8D723
:1030C00018C010F019C011F01AC012F020C013F08F
:1030D00021C014F0BBEC15F010C018F011C019F0AD
:1030E00012C01AF01200000E426E13D04250010DB1
:1030F000000EF324D96E010EF420DA6E4250010D59
:103100002F0EF324E16E000EF420E26EDFCFE7FF16
:10311000422A4250010D000EF324D96E010EF42014
:10312000DA6E2C0EDE18D8A4E1D72F0E1C6E000E1E
:103130001D6E52EC14F01CC03EF01DC03FF01EC0CE
:1031400040F01FC041F03EC02AF03FC02BF040C00D
:103150002CF041C02DF01200000E156E11AE06D0FD
:10316000106C111ED8B0112A010E156E13AE04D0CA
:10317000126C131ED8B0132A12501310D8B418D0E2
:10318000010E146E04D0D89012361336142A13AEE2
:10319000FAD71250105C13501158D8A004D0125016
:1031A000105E1350115AD89013321232142EF1D7E8
:1031B0001550D8B404D0106C111ED8B0112A10C00C
:1031C00010F011C011F01200145015101610171045
:1031D000D8B424D0010E186E06D0D8901436153607
:1031E00016361736182A17AEF8D71450105C15503B
:1031F00011581650125817501358D8A008D0145010
:10320000105E1550115A1650125A1750135AD89072
:103210001732163215321432182EE7D710C010F0BC
:1032200011C011F012C012F013C013F012008E0E74
:10323000206E06D0D8901B321A3219321832202A4A
:10324000000E18141C6E000E19141D6E000E1A14B8
:103250001E6EFF0E1B141F6E1C501D101E101F1023
:10326000D8A4E8D718C010F019C011F01AC012F095
:1032700020C013F0000E146EBBEC15F010C018F057
:1032800011C019F012C01AF012001C6E1C04D8A450
:1032900006D019500F0B80092FEC1BF01DD0020E29
:1032A0001C18D8A406D019500F0BC0092FEC1BF026
:1032B00013D0030E1C18D8A406D019500F0B940974
:1032C0002FEC1BF009D0040E1C18D8A405D01950FF
:1032D0000F0BD4092FEC1BF01AC017F01BC018F00D
:1032E000CAEC19F0120010C014F011C015F002D091
:1032F000144A152A14C0D9FF15C0DAFFDF50D8B41C
:1033000005D0F6D7144A152A124A132A12C0F6FF1E
:1033100013C0F7FFF86A14C0D9FF15C0DAFF070E13
:10332000F76403D00800F55005D0F6CFE1FFF7CFE2
:10333000E2FFE750DF6EDF50D8B41200E3D7000E93
:10334000186E000E196E000E1A6E000E1B6E10A085
:1033500008D0145018261550192216501A2217504A
:103360001B22D8901436153616361736D8901332DD
:103370001232113210321050111012101310D8A442
:10338000E6D718C010F019C011F01AC012F01BC017
:1033900013F0120014D017C0F6FF18C0F7FFF86A38
:1033A000070EF76403D00800F55005D0F6CFE1FF13
:1033B000F7CFE2FFE75020EC1BF0174A182A17C09E
:1033C000F6FF18C0F7FFF86A070EF76403D008008D
:1033D000F55005D0F6CFE1FFF7CFE2FFE750000947
:1033E000D8B41200D8D7000166510001671100015E
:1033F0006811D8B409D0000E0001661B000E000150
:10340000671B800E0001681B63C03DF064C03EF086
:1034100065C03FF066C040F067C041F068C042F050
:10342000EAEC0FF03DC063F03EC064F03FC065F0D1
:103430001200000E956E000E936E000E116E140EAB
:10344000106E55EC1AF0380E2FEC1BF00C0E2FEC12
:103450001BF0060E2FEC1BF0010E2FEC1BF0000EE4
:10346000116E030E106E55EC1AF0800E2FEC1BF04F
:103470001200000E1B6E19AE06D0186C191ED8B0C3
:10348000192A010E1B6E18C010F019C011F0126A33
:103490008E0E136E1BC014F0BBEC15F010C018F0AC
:1034A00011C019F012C01AF01200000E136E000EB7
:1034B000126E0FD0000E156E000E146E155007E13F
:1034C000A50E145CD8B003D0144A152AF7D7124AB7
:1034D000132A1050125C11501358D8B01200EAD7BA
:1034E00001EE00F0820EEE6AE806FDE100EEC0F0AB
:1034F000300EEE6AE806FDE100EE46F0090EEE6AD7
:10350000E806FDE14F904F92000EF86E000119EFB2
:103510000DF010C014F011C015F004D0144A152A93
:10352000124A132A12C0D9FF13C0DAFF14C0E1FFF8
:1035300015C0E2FFDFCFE7FFE750D8B41200EED7A7
:1035400010C016F011C017F008D016C0D9FF17C070
:10355000DAFF12C0DFFF164A172A1406D8A0150694
:103560001428F3E11528D8B41200EFD7126E010E1B
:10357000116E200E1218D8B408D00E0E126003D0AF
:10358000090E126002D0000E116E11C010F0103042
:1035900012001E502002F3CF22F0F4CF23F01E5071
:1035A0002102F35023261F502002F350232622C06D
:1035B0001EF023C01FF01200335034103510D8B461
:1035C00006D0000E331A000E341A800E351A33C09E
:1035D00033F034C034F035C035F0120009D011C0DA
:1035E000D9FF12C0DAFFDF5048EC1BF0114A122A53
:1035F00011C0D9FF12C0DAFFDF50D8B41200EFD7E4
:1036000042C036F043C037F0000E386E000E396EFF
:103610003EEC0BF036C042F037C043F038C044F007
:103620001200126E000E116E3A0E126005D02F0EAF
:10363000126402D0010E116E11C010F01030120091
:10364000166E16C08AFF8C808C928C8400F08C944D
:10365000000E116E030E106E55EC1AF01200166E6D
:1036600016C08AFF8C908C928C8400F08C94000E93
:10367000116E030E106E55EC1AF0120092680E0EC9
:10368000C16E920EC06E000EC46E000EC36E1200AC
:0C369000106E9EA8FED710C0ADFF120007
:020000040020DA
:08000000FFFFFFFFFFFFFFFF00
:020000040030CA
:0E00000000051F1FFF8385FF0FC00FE00F409C
:00000001FF
