:04000000C6EF05F052
:10080000003738392F3435362A3132332D0D303D0B
:100810002B003738392F3435362A3132332D0D300D
:100820003D2B0037383930005445434C41444F008C
:100830002020202020200000010EF66E080EF76E0A
:1008400020EE18F0100E0900F5CFDEFFE806FBE2FF
:1008500013EC06F0000E0F015B6F000E0F015C6FD2
:10086000000E0F015D6F000E0F015E6F000E0F0195
:100870005F6F18EC06F0000E936E02EC05F00CECC6
:1008800006F0060E046E010E3BEC05F0280E056E18
:10089000080E066E63EC05F09490000E926E8B804D
:1008A00089907DEC04F001503E6EC7EC04F03E6E82
:1008B0003E50D8B41CD0080E046E020E3BEC05F07E
:1008C0003E50010D180EF324D96E000EF420DA6E9E
:1008D000DF50AAEC05F0030E176E080E166E770EA9
:1008E000E82EFED7162EFCD7172EFAD700F08BB0C5
:1008F00002D08B80D6D78B90D4D7000E056E100E09
:10090000086E000E076E000E066E83CF03F00F0E0A
:100910000316D8B437D00F0E83160850FF0A951669
:1009200008508312820E036EDE0EE82EFED7032ED1
:10093000FCD783CF03F00F0E031603500612030EED
:100940000518D8B416D006C003F007C004F0033A67
:10095000043AF00E041603500F0B0412F00E0316A7
:1009600003C006F004C007F008500824086E052AEA
:10097000D2D70F0E956EF00E836E06C001F007C041
:1009800002F01200000E026E000E016E1200120E36
:10099000F66E080EF76E20EE01F0100E0900F5CF8E
:1009A000DEFFE806FBE2000E136E000E126E000E74
:1009B000156E010E146E15501BE1100E145CD8B0AC
:1009C00017D01438F00B8C6E83B012D0124A132A51
:1009D00083B20ED0124A132A83B40AD0124A132AC1
:1009E00083B606D0124A132AD89014361536E3D7A8
:1009F000000E836E010E1224D96E000E1320DA6EE3
:100A0000DF501200000EDDEC05F01A0E046EF80E39
:100A1000E82EFED7042EFCD700D0030EF3EC05F031
:100A2000070E046E7D0EE82EFED7042EFCD700F0D4
:100A3000030EF3EC05F00F0E046E480EE82EFED701
:100A4000042EFCD7030EF3EC05F0020EF3EC05F0D8
:100A5000020EF3EC05F0080EF3EC05F0000EF3ECDB
:100A600005F00C0EF3EC05F0000EF3EC05F0060EAD
:100A7000F3EC05F01200056E0504D8A410D0045064
:100A80007F0F086E08380F0B066E08500F0B076EAD
:100A90000650F3EC05F00750F3EC05F01200020EDF
:100AA0000518D8A412000450BF0F086E08380F0BA9
:100AB000066E08500F0B076E0650F3EC05F007505A
:100AC000F3EC05F01200000E0A6E000E096E10D055
:100AD00009500524076E0A500620086E07C0F6FF6D
:100AE00008C0F7FF0800F550AAEC05F0094A0A2AE9
:100AF00009500524076E0A500620086E07C0F6FF4D
:100B000008C0F7FF0800F5500009D8B41200E0D77C
:100B1000000E8D6E000E8C6E000E896E000E8A6EB9
:100B2000000E8B6E070E966E92689368C70E946ED9
:100B30009568C40E0F015D6F3F0E0F015C6F0F01D2
:100B40005E69070E0F015F6F2F0E0F015B6F8568E7
:100B5000F19E1200046E04500F0B026E0450F00B55
:100B6000036E818E03380F0BDDEC05F0818C0D0ECA
:100B7000E82EFED700F0819C0250DDEC05F0818C60
:100B80000D0EE82EFED700F0819C1200360EF66E98
:100B90000C0EF76E000EF86E0900F5CF49F0090053
:100BA000F5CF4AF000EE29F0200EEE6AE806FDE1EE
:100BB000000EF86E00011CEF04F0016E01A002D0DF
:100BC000818A01D0819A01A202D0818801D08198C6
:100BD00001A402D0818601D0819601A602D0818431
:100BE000120081941200036E819E0350DDEC05F02B
:100BF000818C060E026E300EE82EFED7022EFCD738
:100C000000D0819C1200100ED36E000ED26E000E2A
:100C10009B6E000EB56E1200000EF3EC05F0010E97
:100C2000F3EC05F0120088EC05F003EC06F012007E
:080C30000F0E956E1200640026
:020000040020DA
:08000000FFFFFFFFFFFFFFFF00
:020000040030CA
:0E00000020215E3CFFD381FF0FC00FE00F40B8
:00000001FF
