:020000040000FA
:040000006EEF08F0A7
:10080000003132334134353642373839432A3023C8
:100810004450726573696F6E65207465636C613AEC
:1008200020002A2A2A2A2A4B45595041442A2A2A9A
:100830002A2A002A2A5049432020313846343535A7
:0F084000302A2A005465636C613A20256300005A
:100850000F0EC1128150815081508150F00E9316BD
:100860008A50000E956ED8EC06F098EC08F0010E58
:10087000046E010E10EC07F0220E056E080E066ED7
:1008800099EC06F0010E046E020E10EC07F0330E28
:10089000056E080E066E99EC06F0060E456E130EF8
:1008A000446EAE0EE82EFED7442EFCD7452EFAD766
:1008B000010E046E020E10EC07F0110E056E080E0C
:1008C000066E99EC06F0060E456E130E446EAE0EE3
:1008D000E82EFED7442EFCD7452EFAD7040E5260E0
:1008E00074EF04F076EF04F083EF04F052C04FF0A1
:1008F0005850FF0A8A6E58505824586E522A16ECE7
:1009000008F088EF04F0000E526E8A68010E586EEF
:1009100016EC08F0D8A08FEF04F091EF04F0BFEFD1
:1009200004F081B896EF04F098EF04F09CEF04F027
:10093000000E506EBDEF04F081BAA1EF04F0A3EFFA
:1009400004F0A7EF04F0010E506EBDEF04F081BC7F
:10095000ACEF04F0AEEF04F0B2EF04F0020E506E14
:10096000BDEF04F081BEB7EF04F0B9EF04F0BDEFC6
:1009700004F0030E506EBDEF04F04DEC06F0040ED3
:100980004E18D8A4C6EF04F0C8EF04F06EEF04F0E0
:10099000010E046E030E10EC07F0530E056E000EF0
:1009A000066E99EC06F0000E4E6E6EEF04F000EF4E
:1009B00000F023C0D9FF24C0DAFFDECFF6FFDDCF81
:1009C000F7FF0800F550250AD8A4E9EF04F0EBEF93
:1009D00004F06BEF05F023C0D9FF24C0DAFFDE2A54
:1009E000000EDD22000E496E000E486E48C04CF02D
:1009F00049C04DF04A684B6823C0D9FF24C0DAFFD4
:100A0000DECFF6FFDDCFF7FF0800F550630AD8A46C
:100A10000CEF05F00EEF05F035EF05F023C0D9FF20
:100A200024C0DAFFDE2A000EDD2225C0D9FF26C051
:100A3000DAFFDFCF27F0020EDE26DFCF28F0000E30
:100A4000DD2227C0D9FF28C0DAFFDF50296E21C080
:100A50001CF022C01DF029C01EF0A0EC07F01CC045
:100A600021F01DC022F086EF05F023C0D9FF24C07D
:100A7000DAFFDECFF6FFDDCFF7FF0800F550250ADD
:100A8000D8A445EF05F047EF05F05EEF05F023C071
:100A9000D9FF24C0DAFFDE2A000EDD22000E026E2E
:100AA000250E016E21C003F022C004F087EC05F092
:100AB000000E226E010E216E86EF05F023C0D9FFD5
:100AC00024C0DAFFDE2A000EDD22000E226E000EA8
:100AD000216E86EF05F023C0D9FF24C0DAFFDECFF8
:100AE000F6FFDDCFF7FF0800F550016E026A21C066
:100AF00003F022C004F087EC05F023C0D9FF24C026
:100B0000DAFFDE2A000EDD2258EF05F01200035056
:100B10000410D8B48EEF05F090EF05F099EF05F0D2
:100B200003500410D8A497EF05F099EF05F09EEF5D
:100B300005F001509FEC08F0EBEF05F020EE04F01B
:100B40000350D9260450DA22DE50DE10D8B4ABEFC1
:100B500005F0ADEF05F0C8EF05F020EE04F003500E
:100B6000D9260450DA2210EE02F00350E126045098
:100B7000E222DE50E65CE650800A096EDE50800A12
:100B80000958D8B0C6EF05F0C8EF05F0EBEF05F057
:100B900020EE02F00350D9260450DA22DECF05F011
:100BA000DDCF06F003C0D9FF04C0DAFFDECF07F0C7
:100BB000DDCF08F005500724D96E06500820DA6E04
:100BC00001C0DFFF20EE02F00350D9260450DA22E4
:100BD000DE2A000EDD2212004CA0F1EF05F0F3EF4B
:100BE00005F0FDEF05F013C00AF014C00BF011C0C2
:100BF0000CF012C00DF0F4EC07F016BE02EF06F098
:100C000004EF06F00AEF06F015C01AF016C01BF04C
:100C10000EEF06F0000E1B6E000E1A6E000E196E1F
:100C2000000E186E20EF06F0000E026E200E016E10
:100C300011C003F012C004F087EC05F0184A192A1D
:100C40001A50185C1950800A176E1B50800A1758EA
:100C5000D8A02DEF06F02FEF06F014EF06F04CB001
:100C600034EF06F036EF06F040EF06F013C00AF05E
:100C700014C00BF011C00CF012C00DF0F4EC07F032
:100C800013C001F014C002F053EC08F01A50012414
:100C9000116E1B500220126E12004E0E426EEB0EB1
:100CA000E82EFED7422EFCD700F04F50040D010E67
:100CB000426E080E436EF3504226F45043225050C9
:100CC0004226000E432242C0F6FF43C0F7FF080051
:100CD000F5CF51F0530E4E24D96EDA6A000EDA22A7
:100CE00051C0DFFF4E2A800E326E000E336E440E6E
:100CF000346E080E356E51C036F0376ACDEC07F011
:100D000098EC08F0010E046E010E10EC07F0220EB4
:100D1000056E080E066E99EC06F0010E046E020ECA
:100D200010EC07F0800E056E000E066E99EC06F0D2
:100D30001200000E0A6E000E096EB9EF06F009509F
:100D40000524076E0A500620086E07C0F6FF08C08B
:100D5000F7FFF86A070EF76403D00800F55005D0D6
:100D6000F6CFE1FFF7CFE2FFE75037EC08F0094A92
:100D70000A2A09500524076E0A500620086E07C08B
:100D8000F6FF08C0F7FFF86A070EF76403D0080003
:100D9000F55005D0F6CFE1FFF7CFE2FFE7500009AD
:100DA000D8A4D5EF06F0D7EF06F09FEF06F01200BB
:100DB000000E72EC07F0340E046EF20EE82EFED731
:100DC000042EFCD7030E88EC08F00D0E046EFC0E0A
:100DD000E82EFED7042EFCD7030E88EC08F01D0E7B
:100DE000046E910EE82EFED7042EFCD700F0030E01
:100DF00088EC08F0020E88EC08F0020E88EC08F08F
:100E0000080E88EC08F0000E88EC08F00C0E88EC58
:100E100008F0000E88EC08F0060E88EC08F01200CE
:100E2000056E0504D8A417EF07F019EF07F02AEFB5
:100E300007F004507F0F086E08380F0B066E08503D
:100E40000F0B076E065088EC08F0075088EC08F08E
:100E500042EF07F0020E0518D8A431EF07F033EF88
:100E600007F042EF07F00450BF0F086E08380F0B71
:100E7000066E08500F0B076E065088EC08F00750FE
:100E800088EC08F012002CC030F02DC031F0000EBC
:100E9000476E000E466E5FEF07F02AC021F02BC0B0
:100EA00022F0300E236E000E246E2EC025F02FC0CF
:100EB00026F0D9EC04F0215046262250472230C0BB
:100EC000F6FF31C0F7FF0800F5500009D8A46BEF1A
:100ED00007F06DEF07F04DEF07F046C02AF047C06E
:100EE0002BF01200016E01A078EF07F07AEF07F007
:100EF0007DEF07F083887EEF07F0839801A283EFF0
:100F000007F085EF07F088EF07F0838A89EF07F095
:100F1000839A01A48EEF07F090EF07F093EF07F0AC
:100F2000838C94EF07F0839C01A699EF07F09BEF69
:100F300007F09EEF07F0838E9FEF07F0839E12006D
:100F400048504910D8A4A7EF07F0A9EF07F0AFEF7A
:100F500007F048C01FF049C020F0B5EF07F0FF0EC2
:100F600048241F6EFF0E4920206E1EC060F0000E48
:100F70000001616F1CC011F01DC012F0600E136EF5
:100F8000000E146E1FC015F020C016F0ECEC05F03A
:100F900011C01CF012C01DF01200360E3A6E000E89
:100FA0003B6E32C03CF033C03DF0000E3F6E000E91
:100FB0003E6E000E416E000E406E3C0E2A6E000E1C
:100FC0002B6E34C02CF035C02DF03A0E2E6E000E74
:100FD0002F6E43EC07F03E503224D96E3F50332041
:100FE000DA6E000EDF6E1200000E106E000E0F6E35
:100FF00005EF08F00EC001F0026A0CC003F00DC04E
:1010000004F087EC05F00F4A102A0F500A24D96E1D
:1010100010500B20DA6EDF500E6E0E50D8A413EF76
:1010200008F015EF08F0FAEF07F0120081A81BEFA7
:1010300008F01DEF08F035EF08F081AA22EF08F064
:1010400024EF08F035EF08F081AC29EF08F02BEF22
:1010500008F035EF08F081AE30EF08F032EF08F01D
:1010600035EF08F0D89036EF08F0D8801200046E03
:1010700004500F0B026E0450F00B036E8384033890
:101080000F0B72EC07F083861A0EE82EFED700D005
:101090008396025072EC07F083861A0EE82EFED774
:1010A00000D08396120001C003F002C004F05BEF91
:1010B00008F0014A022A01C0D9FF02C0DAFFDF505E
:1010C000D8A465EF08F067EF08F059EF08F0035077
:1010D000015C016E04500258026E1200400EF66E62
:1010E000110EF76E000EF86E0900F5CF58F000EE05
:1010F00060F0300EEE6AE806FDE100EE46F0120EFA
:10110000EE6AE806FDE1000EF86E000128EF04F03B
:10111000036E8394035072EC07F083860B0E026E0D
:10112000620EE82EFED7022EFCD700D08396120066
:10113000000E88EC08F0010E88EC08F01200120096
:0111400001AD
:020000040020DA
:08000000FFFFFFFFFFFFFFFF00
:020000040030CA
:0E000000000C191EFF8381FF0FC00FE00F40A0
:00000001FF
